:100000000C94F2020C941A030C941A030C941A0325
:100010000C941A030C941A030C941A030C941A03EC
:100020000C941A030C941A030C941A030C941A03DC
:100030000C941A030C941A030C941A030C941A03CC
:100040000C9440170C941A030C9410190C94EA1891
:100050000C941A030C941A030C941A030C941A03AC
:100060000C9412160C941A030000000023002600C2
:10007000290000000000003E5B4F5B3E3E6B4F6B73
:100080003E1C3E7C3E1C183C7E3C181C577D571C79
:100090001C5E7F5E1C00183C1800FFE7C3E7FF00F2
:1000A00018241800FFE7DBE7FF30483A060E262940
:1000B000792926407F050507407F05253F5A3CE703
:1000C0003C5A7F3E1C1C08081C1C3E7F14227F22C9
:1000D000145F5F005F5F06097F017F006689956A94
:1000E000606060606094A2FFA29408047E0408101F
:1000F000207E201008082A1C08081C2A08081E1048
:100100001010100C1E0C1E0C30383E3830060E3EFF
:100110000E06000000000000005F0000000700075E
:1001200000147F147F14242A7F2A12231308646288
:1001300036495620500008070300001C22410000E9
:1001400041221C002A1C7F1C2A08083E0808008047
:1001500070300008080808080000606000201008DF
:1001600004023E5149453E00427F400072494949E0
:10017000462141494D331814127F10274545453912
:100180003C4A494931412111090736494949364616
:100190004949291E000014000000403400000008F6
:1001A0001422411414141414004122140802015999
:1001B00009063E415D594E7C1211127C7F49494926
:1001C000363E414141227F4141413E7F49494941BB
:1001D0007F090909013E414151737F0808087F00EA
:1001E000417F41002040413F017F081422417F4070
:1001F0004040407F021C027F7F0408107F3E414147
:10020000413E7F090909063E4151215E7F091929B6
:1002100046264949493203017F01033F4040403FA0
:100220001F2040201F3F4038403F631408146303E1
:10023000047804036159494D43007F414141020460
:10024000081020004141417F040201020440404067
:100250004040000307080020545478407F2844445D
:10026000383844444428384444287F385454541877
:1002700000087E090218A4A49C787F080404780072
:10028000447D40002040403D007F10284400004154
:100290007F40007C047804787C0804047838444467
:1002A0004438FC1824241818242418FC7C0804045E
:1002B00008485454542404043F44243C4040207CC7
:1002C0001C2040201C3C4030403C44281028444C1A
:1002D0009090907C4464544C4400083641000000E7
:1002E000770000004136080002010204023C262388
:1002F000263C1EA1A161123A4040207A3854545540
:100300005921555579412254547842215554784009
:1003100020545579400C1E52721239555555593991
:100320005454545939555454580000457C410002E6
:10033000457D420001457C407D1211127DF028254B
:1003400028F07C545545002054547C547C0A097F85
:100350004932494949323A4444443A324A48483099
:100360003A4141217A3A42402078009DA0A07D3D4B
:100370004242423D3D4040403D3C24FF2424487ED3
:100380004943662B2FFC2F2BFF0929F620C0887EBE
:10039000090320545479410000447D413048484AC3
:1003A00032384040227A007A0A0A727D0D19317D76
:1003B0002629292F28262929292630484D4020384A
:1003C0000808080808080808382F10C8ACBA2F1009
:1003D0002834FA00007B000008142A142222142A70
:1003E00014085500550055AA55AA55AAFF55FF55A2
:1003F000FF000000FF00101010FF00141414FF0095
:100400001010FF00FF1010F010F0141414FC001472
:1004100014F700FF0000FF00FF1414F404FC141490
:1004200017101F10101F101F1414141F001010108D
:10043000F0000000001F101010101F10101010F01E
:1004400010000000FF101010101010101010FF10FE
:10045000000000FF140000FF00FF00001F10170045
:1004600000FC04F414141710171414F404F400001E
:10047000FF00F714141414141414F700F7141414D0
:10048000171410101F101F141414F4141010F0106F
:10049000F000001F101F0000001F14000000FC14DB
:1004A0000000F010F01010FF10FF141414FF1410CF
:1004B00010101F00000000F010FFFFFFFFFFF0F022
:1004C000F0F0F0FFFFFF0000000000FFFF0F0F0F34
:1004D0000F0F3844443844FC4A4A4A347E0202062C
:1004E00006027E027E0263554941633844443C045F
:1004F000407E201E2006027E020299A5E7A5991CD7
:100500002A492A1C4C7201724C304A4D4D303048F9
:10051000784830BC625A463D3E494949007E010157
:10052000017E2A2A2A2A2A44445F444440514A44EC
:100530004040444A51400000FF0103E080FF0000BA
:1005400008086B6B083612362436060F090F0600B2
:100550000018180000001010003040FF0101001FBB
:1005600001011E00191D1712003C3C3C3C0000001C
:10057000000000000000240027002A000000000006
:10058000250028002B0004040404040404040202CF
:100590000202020203030303030301020408102002
:1005A000408001020408102001020408102000000D
:1005B0000008000201000003040700000000000022
:1005C0000000000000FFFF00000000003CFFFF7E75
:1005D000000000187EFFFFFF7E18187EFFFFFFFF60
:1005E0007E18651911241FBECFEFD8E0DEBFCDBF46
:1005F00011E0A0E0B1E0E4EBF6E402C005900D925A
:10060000AC35B107D9F723E0ACE5B1E001C01D92EC
:10061000A633B207E1F712E0C2EFD2E004C021979F
:10062000FE010E944D23C13FD107C9F70E94A519C1
:100630000C9458230C940000FC014830510508F03C
:100640009EC06830710508F09AC08589823059F0E3
:100650008330A1F08130C1F487E090E0841B950BDA
:10066000AB01BC0111C087E090E0DC01A61BB70B19
:10067000BD01DC01A41BB50BAD0106C087E090E015
:10068000861B970BBA01AC0123303105D9F4440F16
:10069000551FE40FF51F81E090E0AC01062E02C06B
:1006A000440F551F0A94E2F7228D338D242B352BEE
:1006B000685F7F4F02C0880F991F6A95E2F78095A7
:1006C000909559C021303105E1F4440F551FE40FD6
:1006D000F51FCB010896A90102C0440F551F8A954A
:1006E000E2F7828D938D842B952B02C0220F331F4E
:1006F0006A95E2F72095309528233923338F228F8E
:10070000089522303105D9F4440F551FE40FF51F29
:100710009B01285F3F4F81E090E0AC0102C0440F95
:10072000551F2A95E2F702C0880F991F6A95E2F7D4
:10073000842B952B228D338D822B932B1EC0232B44
:10074000F1F4440F551FE40FF51F9B01285F3F4F45
:1007500081E090E0DC0102C0AA0FBB1F2A95E2F7FE
:1007600002C0880F991F6A95E2F78A2B9B2B809510
:100770009095228D338D82239323938F828F0895BA
:100780000895FC016370658B848195812681378192
:10079000613039F0633029F0918780873387228771
:1007A0000895318720879387828708956F927F927B
:1007B0008F929F92AF92BF92CF92DF92EF92FF9271
:1007C0000F931F93CF93DF93EC014B015A01690103
:1007D0003801E881F9810284F385E02D0995E881EB
:1007E000F9810288F389E02D87019601A501B40102
:1007F000CE010995A501460D571D41505109E881CB
:10080000F9810288F389E02D9601B401CE010995A2
:10081000E881F9810088F189E02D9301A501B401F7
:10082000CE010995C80CD91CB60161507109E88147
:10083000F9810088F189E02D9301A501CE01099588
:10084000E881F9810688F789E02DCE01DF91CF910B
:100850001F910F91FF90EF90DF90CF90BF90AF90DE
:100860009F908F907F906F9009948F929F92AF92FC
:10087000BF92CF92DF92EF92FF920F931F93CF938D
:10088000DF934C016B015A01E901DC01ED91FC9110
:100890006217730781F40417150724F48B2D580190
:1008A000042F182F0A191B0998012F5F3F4F048C42
:1008B000F58DE02D12C04017510709F526173707AF
:1008C00024F48D2D6901C62FD82F9E012C193D09C6
:1008D0002F5F3F4F068CF78DE02D8701A501B601F4
:1008E000C4010995DF91CF911F910F91FF90EF9077
:1008F000DF90CF90BF90AF909F908F90089502842B
:10090000F385E02D0995D401ED91FC910488F589DA
:10091000E02D9E01A501B601C4010995D401ED9118
:10092000FC910688F789E02DC401DF91CF911F91DA
:100930000F91FF90EF90DF90CF90BF90AF909F907E
:100940008F900994EF92FF920F931F93DC011A96F8
:100950000D911C911B9718962D913C911997ED9133
:10096000FC9100A0F1A1E02D7B0140E050E060E0AF
:1009700070E009951F910F91FF90EF9008954F92AD
:100980005F926F927F928F929F92AF92BF92CF921F
:10099000DF92EF92FF920F931F93CF93DF936C013F
:1009A0002B015A0139014801DC01ED91FC910284CF
:1009B000F385E02D0995E201640C751CD601ED91DB
:1009C000FC91C615D7055CF40088F189E02D8701FC
:1009D0009401A501BE01C60109952196EFCF0688B5
:1009E000F789E02DC601DF91CF911F910F91FF9004
:1009F000EF90DF90CF90BF90AF909F908F907F90BF
:100A00006F905F904F9009948F929F92AF92BF9298
:100A1000CF92DF92EF92FF920F931F93CF93DF93CA
:100A2000EC015B014A016901E881F9810284F385E7
:100A3000E02D099595012C0D3D1D21503109E881CE
:100A4000F9810488F589E02D78018401A401B501BC
:100A5000CE010995E881F9810688F789E02DCE015C
:100A6000DF91CF911F910F91FF90EF90DF90CF908A
:100A7000BF90AF909F908F9009948F929F92AF926A
:100A8000BF92CF92DF92EF92FF920F931F93CF937B
:100A9000DF93EC015B014A0169017801E881F9818A
:100AA0000284F385E02D0995C80CD91C86010150FC
:100AB0001109E881F9810488F589E02D9501A401E7
:100AC000B501CE010995E881F9810688F789E02D05
:100AD000CE01DF91CF911F910F91FF90EF90DF90AA
:100AE000CF90BF90AF909F908F900994EF92FF921C
:100AF0000F931F93DC01ED91FC9100A0F1A1E02D7B
:100B000009951F910F91FF90EF9008950F931F93F8
:100B1000DC01ED91FC91068CF78DE02D09951F917C
:100B20000F9108950F931F93DC01ED91FC91048CBC
:100B3000F58DE02D09951F910F910895DC01ED9140
:100B4000FC910084F185E02D09942F923F924F9201
:100B50005F926F927F928F929F92AF92BF92CF924D
:100B6000DF92EF92FF920F931F93CF93DF9300D00A
:100B700000D000D0CDB7DEB72C017E836D836A0133
:100B80005901C801FC82EB824801841A950A97FE3C
:100B900003C091948194910835012D813E81621AA0
:100BA000730A77FE03C07194619471086814790424
:100BB0005CF43A2D2B2D5C01832F922F3D812E81E9
:100BC000DE82CD82C32ED22EAD81BE81AA16BB0697
:100BD0005CF43C2D2D2D6C01832F922F3D812E81B5
:100BE000BE82AD82A32EB22E85012D813E81021BD5
:100BF000130B1C012C183D0837FE03C031942194BF
:100C00003108780117FF03C03FEFE31AF30AF594A8
:100C1000E794C816D9062CF08FEF9FEF9A8389834B
:100C200004C0A1E0B0E0BA83A9832D813E81A21661
:100C3000B30624F1D201ED91FC910484F585E02DF9
:100C40002B813C816814790424F44D815E81B601C6
:100C500003C0A6016D817E81C2010995E218F308E7
:100C6000F7FE06C029813A81C20ED31EE00EF11EA6
:100C70008D819E8101969E838D83D7CF26960FB658
:100C8000F894DEBF0FBECDBFDF91CF911F910F91C2
:100C9000FF90EF90DF90CF90BF90AF909F908F909C
:100CA0007F906F905F904F903F902F9008950895A0
:100CB00080E090E00895AF92BF92CF92EF92FF92C2
:100CC0000F931F93CF93DF93EC01262F888D998D7F
:100CD000009709F040C06A3059F41D861C862C89A3
:100CE0008E859F8538E0239F800D911D112441C082
:100CF0006D3009F4AAC08E898823C1F03C898C85A7
:100D00009D8546E0349F800D911D112448855985AD
:100D1000481759075CF41D861C868E859F8548E020
:100D2000349F800D911D11249F878E87EA88FB8850
:100D3000088919894E855F856C857D85CC88CE01B3
:100D40000E94F8132C898C859D8536E0239F800DA9
:100D5000911D112442C06A3079F41D861C862C89AD
:100D6000FC013696E4918E859F852E9F800D911D06
:100D700011249F878E8769C06D3009F466C0FC011D
:100D800034963491631708F460C03196E491E61705
:100D900008F45BC0FC01329665917491422F50E0DB
:100DA000431B510937E0349F5001359FB00C11248B
:100DB000A60EB71EF501329634913196E491332395
:100DC00011F0E1110DC0F5013496E4912C898C8568
:100DD0009D85E29F800D911D11249D878C8735C0D4
:100DE000F501359644915E89552311F16C89E32F05
:100DF000F0E0E40FF11D47FDFA956E9FD0016F9F63
:100E0000B00D11244C855D854A0F5B1FE885F9857F
:100E1000E417F5076CF41D861C86FC013696E491F8
:100E20008E859F856E9F800D911D11249F878E87D3
:100E3000EA88FB88088919894E855F856C857D85E0
:100E4000CC88CE010E94F813BECF81E090E0DF9104
:100E5000CF911F910F91FF90EF90CF90BF90AF90E7
:100E60000895CF93DF93EC01229620915C0130919D
:100E70005D0143E050E0BE018BEF91E00E941C0356
:100E800020915C0130915D0144E050E0BE018BEFA8
:100E900091E00E941C0320915C0130915D0145E0CE
:100EA00050E0BE018BEF91E00E941C0320915C0199
:100EB00030915D0146E050E0BE018BEF91E00E9471
:100EC0001C0320915C0130915D0147E050E0BE01C0
:100ED0008BEF91E0DF91CF910C941C030F931F9344
:100EE000CF93DF93EC0120E030E043E050E0BC0121
:100EF00086E292E00E941C038E010F5F1F4F20E0EC
:100F000030E043E050E0B80186E292E00E941C032A
:100F100020E030E044E050E0BE0186E292E00E9432
:100F20001C0320E030E044E050E0B80186E292E0AB
:100F30000E941C0320E030E043E050E0BE018BEF54
:100F400091E00E941C0320E030E043E050E0B80153
:100F50008BEF91E00E941C0320E030E044E050E081
:100F6000BE018BEF91E00E941C0320E030E044E0E2
:100F700050E0B8018BEF91E0DF91CF911F910F917D
:100F80000C941C03EF92FF920F931F93CF93DF9368
:100F9000EC016130710509F074C020915C01309161
:100FA0005D0143E050E0BC0186E292E00E941C0338
:100FB0007E018FEFE81AF80A20915C0130915D0103
:100FC00043E050E0B70186E292E00E941C038E01EC
:100FD0000E5F1F4F20915C0130915D0143E050E0B6
:100FE000B80186E292E00E941C0320915C013091DE
:100FF0005D0144E050E0BE0186E292E00E941C03E5
:1010000020915C0130915D0144E050E0B80186E23E
:1010100092E00E941C0320915C0130915D0145E04B
:1010200050E0BE0186E292E00E941C0320915C0128
:1010300030915D0145E050E0B70186E292E00E9408
:101040001C0320915C0130915D0145E050E0B80146
:1010500086E292E00E941C0320915C0130915D01C8
:1010600046E050E0B80186E292E00E941C03209125
:101070005C0130915D0147E050E0B80186E292E00A
:1010800077C06230710509F07BC020915C0130911E
:101090005D0143E050E0BC018BEF91E00E941C0336
:1010A0007E018FEFE81AF80A20915C0130915D0112
:1010B00043E050E0B7018BEF91E00E941C038E01EA
:1010C0000E5F1F4F20915C0130915D0143E050E0C5
:1010D000B8018BEF91E00E941C0320915C013091DC
:1010E0005D0144E050E0BE018BEF91E00E941C03E3
:1010F00020915C0130915D0144E050E0B8018BEF3C
:1011000091E00E941C0320915C0130915D0145E05B
:1011100050E0BE018BEF91E00E941C0320915C0126
:1011200030915D0145E050E0B7018BEF91E00E9406
:101130001C0320915C0130915D0145E050E0B80155
:101140008BEF91E00E941C0320915C0130915D01C6
:1011500046E050E0B8018BEF91E00E941C03209123
:101160005C0130915D0147E050E0B8018BEF91E008
:10117000DF91CF911F910F91FF90EF900C941C0382
:10118000DF91CF911F910F91FF90EF900895EF9213
:10119000FF920F931F93CF93DF93EC0161307105A2
:1011A00009F095C020915C0130915D0143E050E071
:1011B000BC0186E292E00E941C037E018FEFE81AD8
:1011C000F80A20915C0130915D0143E050E0B701E5
:1011D00086E292E00E941C038E010E5F1F4F209159
:1011E0005C0130915D0143E050E0B80186E292E09D
:1011F0000E941C0320915C0130915D0144E050E0AD
:10120000BE0186E292E00E941C0320915C013091B5
:101210005D0144E050E0B80186E292E00E941C03C8
:1012200020915C0130915D0145E050E0BE0186E215
:1012300092E00E941C0320915C0130915D0145E029
:1012400050E0B70186E292E00E941C0320915C010D
:1012500030915D0145E050E0B80186E292E00E94E5
:101260001C0320915C0130915D0146E050E0BE011D
:1012700086E292E00E941C0320915C0130915D01A6
:1012800046E050E0B80186E292E00E941C03209103
:101290005C0130915D0147E050E0BE0186E292E0E2
:1012A0000E941C0320915C0130915D0147E050E0F9
:1012B000B70186E292E00E941C0320915C0130910C
:1012C0005D0147E050E0B80186E292E098C06230EC
:1012D000710509F09CC020915C0130915D0143E0F3
:1012E00050E0BC018BEF91E00E941C037E018FEF68
:1012F000E81AF80A20915C0130915D0143E050E06A
:10130000B7018BEF91E00E941C038E010E5F1F4F0F
:1013100020915C0130915D0143E050E0B8018BEF1A
:1013200091E00E941C0320915C0130915D0144E03A
:1013300050E0BE018BEF91E00E941C0320915C0104
:1013400030915D0144E050E0B8018BEF91E00E94E4
:101350001C0320915C0130915D0145E050E0BE012D
:101360008BEF91E00E941C0320915C0130915D01A4
:1013700045E050E0B7018BEF91E00E941C03209103
:101380005C0130915D0145E050E0B8018BEF91E0E8
:101390000E941C0320915C0130915D0146E050E009
:1013A000BE018BEF91E00E941C0320915C01309103
:1013B0005D0146E050E0B8018BEF91E00E941C0314
:1013C00020915C0130915D0147E050E0BE018BEF60
:1013D00091E00E941C0320915C0130915D0147E087
:1013E00050E0B7018BEF91E00E941C0320915C015B
:1013F00030915D0147E050E0B8018BEF91E0DF9163
:10140000CF911F910F91FF90EF900C941C03DF91EF
:10141000CF911F910F91FF90EF900895CF93DF939D
:10142000EC016130710509F04FC020915C013091F1
:101430005D0143E050E0BC0186E292E00E941C03A3
:1014400020915C0130915D01BE016F5F7F4F43E0F1
:1014500050E086E292E00E941C03229620915C01FB
:1014600030915D0143E050E0BE0186E292E00E94CF
:101470001C0320915C0130915D0144E050E0BE010D
:1014800086E292E00E941C0320915C0130915D0194
:1014900045E050E0BE0186E292E00E941C032091EC
:1014A0005C0130915D0146E050E0BE0186E292E0D1
:1014B0000E941C0320915C0130915D0147E050E0E7
:1014C000BE0186E292E052C06230710509F052C05E
:1014D00020915C0130915D0143E050E0BC018BEF55
:1014E00091E00E941C0320915C0130915D01BE01DE
:1014F0006F5F7F4F43E050E08BEF91E00E941C0351
:10150000229620915C0130915D0143E050E0BE01E4
:101510008BEF91E00E941C0320915C0130915D01F2
:1015200044E050E0BE018BEF91E00E941C0320914B
:101530005C0130915D0145E050E0BE018BEF91E030
:101540000E941C0320915C0130915D0146E050E057
:10155000BE018BEF91E00E941C0320915C01309151
:101560005D0147E050E0BE018BEF91E0DF91CF914C
:101570000C941C03DF91CF910895EF92FF920F938B
:101580001F93CF93DF93EC016130710509F08AC09E
:1015900020915C0130915D0143E050E0BC0186E2A6
:1015A00092E00E941C037E018FEFE81AF80A209156
:1015B0005C0130915D0143E050E0B70186E292E0CA
:1015C0000E941C038E010E5F1F4F20915C01309121
:1015D0005D0143E050E0B80186E292E00E941C0306
:1015E00020915C0130915D0144E050E0BE0186E253
:1015F00092E00E941C0320915C0130915D0145E066
:1016000050E0BE0186E292E00E941C0320915C0142
:1016100030915D0145E050E0B70186E292E00E9422
:101620001C0320915C0130915D0145E050E0B80160
:1016300086E292E00E941C0320915C0130915D01E2
:1016400046E050E0BE0186E292E00E941C03209139
:101650005C0130915D0146E050E0B80186E292E025
:101660000E941C0320915C0130915D0147E050E035
:10167000BE0186E292E00E941C0320915C01309141
:101680005D0147E050E0B70186E292E00E941C0352
:1016900020915C0130915D0147E050E0B80186E2A5
:1016A00092E08DC06230710509F091C020915C011B
:1016B00030915D0143E050E0BC018BEF91E00E946E
:1016C0001C037E018FEFE81AF80A20915C0130912B
:1016D0005D0143E050E0B7018BEF91E00E941C03F5
:1016E0008E010E5F1F4F20915C0130915D0143E040
:1016F00050E0B8018BEF91E00E941C0320915C0147
:1017000030915D0144E050E0BE018BEF91E00E941A
:101710001C0320915C0130915D0145E050E0BE0169
:101720008BEF91E00E941C0320915C0130915D01E0
:1017300045E050E0B7018BEF91E00E941C0320913F
:101740005C0130915D0145E050E0B8018BEF91E024
:101750000E941C0320915C0130915D0146E050E045
:10176000BE018BEF91E00E941C0320915C0130913F
:101770005D0146E050E0B8018BEF91E00E941C0350
:1017800020915C0130915D0147E050E0BE018BEF9C
:1017900091E00E941C0320915C0130915D0147E0C3
:1017A00050E0B7018BEF91E00E941C0320915C0197
:1017B00030915D0147E050E0B8018BEF91E0DF919F
:1017C000CF911F910F91FF90EF900C941C03DF912C
:1017D000CF911F910F91FF90EF900895EF92FF929C
:1017E0000F931F93CF93DF93EC016130710509F0E4
:1017F0007FC020915C0130915D0143E050E0BC016D
:1018000086E292E00E941C037E018FEFE81AF80A3C
:1018100020915C0130915D0143E050E0B70186E228
:1018200092E00E941C038E010E5F1F4F20915C010D
:1018300030915D0143E050E0B80186E292E00E9401
:101840001C0320915C0130915D0144E050E0BE0139
:1018500086E292E00E941C0320915C0130915D01C0
:1018600045E050E0BE0186E292E00E941C03209118
:101870005C0130915D0145E050E0B70186E292E005
:101880000E941C0320915C0130915D0145E050E015
:10189000B80186E292E00E941C0320915C01309125
:1018A0005D0146E050E0B80186E292E00E941C0330
:1018B00020915C0130915D0147E050E0BE0186E27D
:1018C00092E00E941C0320915C0130915D0147E091
:1018D00050E0B70186E292E00E941C0320915C0177
:1018E00030915D0147E050E0B80186E292E082C0AD
:1018F0006230710509F086C020915C0130915D0174
:1019000043E050E0BC018BEF91E00E941C037E019C
:101910008FEFE81AF80A20915C0130915D0143E0F5
:1019200050E0B7018BEF91E00E941C038E010E5F27
:101930001F4F20915C0130915D0143E050E0B80100
:101940008BEF91E00E941C0320915C0130915D01BE
:1019500044E050E0BE018BEF91E00E941C03209117
:101960005C0130915D0145E050E0BE018BEF91E0FC
:101970000E941C0320915C0130915D0145E050E024
:10198000B7018BEF91E00E941C0320915C01309124
:101990005D0145E050E0B8018BEF91E00E941C032F
:1019A00020915C0130915D0146E050E0B8018BEF81
:1019B00091E00E941C0320915C0130915D0147E0A1
:1019C00050E0BE018BEF91E00E941C0320915C016E
:1019D00030915D0147E050E0B7018BEF91E00E944C
:1019E0001C0320915C0130915D0147E050E0B8019B
:1019F0008BEF91E0DF91CF911F910F91FF90EF90CE
:101A00000C941C03DF91CF911F910F91FF90EF90E9
:101A100008950F931F93CF93DF93EC01613071050D
:101A200009F067C020915C0130915D0143E050E016
:101A3000BC0186E292E00E941C038E010E5F1F4FE4
:101A400020915C0130915D0143E050E0B80186E2F5
:101A500092E00E941C0320915C0130915D0144E002
:101A600050E0BE0186E292E00E941C0320915C01DE
:101A700030915D0144E050E0B80186E292E00E94BE
:101A80001C0320915C0130915D0145E050E0BE01F6
:101A900086E292E00E941C0320915C0130915D017E
:101AA000BE016F5F7F4F45E050E086E292E00E940A
:101AB0001C0320915C0130915D0145E050E0B801CC
:101AC00086E292E00E941C0320915C0130915D014E
:101AD00046E050E0B80186E292E00E941C032091AB
:101AE0005C0130915D0147E050E0B80186E292E090
:101AF0006AC06230710509F06CC020915C013091C0
:101B00005D0143E050E0BC018BEF91E00E941C03BB
:101B10008E010E5F1F4F20915C0130915D0143E00B
:101B200050E0B8018BEF91E00E941C0320915C0112
:101B300030915D0144E050E0BE018BEF91E00E94E6
:101B40001C0320915C0130915D0144E050E0B8013C
:101B50008BEF91E00E941C0320915C0130915D01AC
:101B600045E050E0BE018BEF91E00E941C03209104
:101B70005C0130915D01BE016F5F7F4F45E050E039
:101B80008BEF91E00E941C0320915C0130915D017C
:101B900045E050E0B8018BEF91E00E941C032091DA
:101BA0005C0130915D0146E050E0B8018BEF91E0BF
:101BB0000E941C0320915C0130915D0147E050E0E0
:101BC000B8018BEF91E0DF91CF911F910F910C94B1
:101BD0001C03DF91CF911F910F910895EF92FF9217
:101BE0000F931F93CF93DF93EC016130710509F0E0
:101BF0007FC020915C0130915D0143E050E0BC0169
:101C000086E292E00E941C037E018FEFE81AF80A38
:101C100020915C0130915D0143E050E0B70186E224
:101C200092E00E941C038E010E5F1F4F20915C0109
:101C300030915D0143E050E0B80186E292E00E94FD
:101C40001C0320915C0130915D0144E050E0B8013B
:101C500086E292E00E941C0320915C0130915D01BC
:101C600045E050E0BE0186E292E00E941C03209114
:101C70005C0130915D0145E050E0B70186E292E001
:101C80000E941C0320915C0130915D0145E050E011
:101C9000B80186E292E00E941C0320915C01309121
:101CA0005D0146E050E0B80186E292E00E941C032C
:101CB00020915C0130915D0147E050E0BE0186E279
:101CC00092E00E941C0320915C0130915D0147E08D
:101CD00050E0B70186E292E00E941C0320915C0173
:101CE00030915D0147E050E0B80186E292E082C0A9
:101CF0006230710509F086C020915C0130915D0170
:101D000043E050E0BC018BEF91E00E941C037E0198
:101D10008FEFE81AF80A20915C0130915D0143E0F1
:101D200050E0B7018BEF91E00E941C038E010E5F23
:101D30001F4F20915C0130915D0143E050E0B801FC
:101D40008BEF91E00E941C0320915C0130915D01BA
:101D500044E050E0B8018BEF91E00E941C03209119
:101D60005C0130915D0145E050E0BE018BEF91E0F8
:101D70000E941C0320915C0130915D0145E050E020
:101D8000B7018BEF91E00E941C0320915C01309120
:101D90005D0145E050E0B8018BEF91E00E941C032B
:101DA00020915C0130915D0146E050E0B8018BEF7D
:101DB00091E00E941C0320915C0130915D0147E09D
:101DC00050E0BE018BEF91E00E941C0320915C016A
:101DD00030915D0147E050E0B7018BEF91E00E9448
:101DE0001C0320915C0130915D0147E050E0B80197
:101DF0008BEF91E0DF91CF911F910F91FF90EF90CA
:101E00000C941C03DF91CF911F910F91FF90EF90E5
:101E10000895EF92FF920F931F93CF93DF93EC01FE
:101E20006130710509F07FC020915C0130915D0146
:101E300043E050E0BC0186E292E00E941C037E0178
:101E40008FEFE81AF80A20915C0130915D0143E0C0
:101E500050E0B70186E292E00E941C038E010E5F03
:101E60001F4F20915C0130915D0143E050E0B801CB
:101E700086E292E00E941C0320915C0130915D019A
:101E800044E050E0B80186E292E00E941C032091F9
:101E90005C0130915D0145E050E0BE0186E292E0D8
:101EA0000E941C0320915C0130915D0145E050E0EF
:101EB000B70186E292E00E941C0320915C01309100
:101EC0005D0145E050E0B80186E292E00E941C030B
:101ED00020915C0130915D0146E050E0BE0186E258
:101EE00092E00E941C0320915C0130915D0147E06B
:101EF00050E0BE0186E292E00E941C0320915C014A
:101F000030915D0147E050E0B70186E292E00E9427
:101F10001C0320915C0130915D0147E050E0B80165
:101F200086E292E082C06230710509F086C020919D
:101F30005C0130915D0143E050E0BC018BEF91E02A
:101F40000E941C037E018FEFE81AF80A20915C01C1
:101F500030915D0143E050E0B7018BEF91E00E94CA
:101F60001C038E010E5F1F4F20915C0130915D01BB
:101F700043E050E0B8018BEF91E00E941C032091F8
:101F80005C0130915D0144E050E0B8018BEF91E0DD
:101F90000E941C0320915C0130915D0145E050E0FE
:101FA000BE018BEF91E00E941C0320915C013091F7
:101FB0005D0145E050E0B7018BEF91E00E941C030A
:101FC00020915C0130915D0145E050E0B8018BEF5C
:101FD00091E00E941C0320915C0130915D0146E07C
:101FE00050E0BE018BEF91E00E941C0320915C0148
:101FF00030915D0147E050E0BE018BEF91E00E941F
:102000001C0320915C0130915D0147E050E0B70175
:102010008BEF91E00E941C0320915C0130915D01E7
:1020200047E050E0B8018BEF91E0DF91CF911F9135
:102030000F91FF90EF900C941C03DF91CF911F91B3
:102040000F91FF90EF900895EF92FF920F931F93DF
:10205000CF93DF93EC016130710509F08AC02091C4
:102060005C0130915D0143E050E0BC0186E292E00A
:102070000E941C037E018FEFE81AF80A20915C0190
:1020800030915D0143E050E0B70186E292E00E94AA
:102090001C038E010E5F1F4F20915C0130915D018A
:1020A00043E050E0B80186E292E00E941C032091D8
:1020B0005C0130915D0144E050E0BE0186E292E0B7
:1020C0000E941C0320915C0130915D0144E050E0CE
:1020D000B80186E292E00E941C0320915C013091DD
:1020E0005D0145E050E0BE0186E292E00E941C03E3
:1020F00020915C0130915D0145E050E0B80186E23D
:1021000092E00E941C0320915C0130915D0146E049
:1021100050E0BE0186E292E00E941C0320915C0127
:1021200030915D0146E050E0B80186E292E00E9405
:102130001C0320915C0130915D0147E050E0BE013D
:1021400086E292E00E941C0320915C0130915D01C7
:1021500047E050E0B70186E292E00E941C03209124
:102160005C0130915D0147E050E0B80186E292E009
:102170008DC06230710509F091C020915C013091F1
:102180005D0143E050E0BC018BEF91E00E941C0335
:102190007E018FEFE81AF80A20915C0130915D0111
:1021A00043E050E0B7018BEF91E00E941C038E01E9
:1021B0000E5F1F4F20915C0130915D0143E050E0C4
:1021C000B8018BEF91E00E941C0320915C013091DB
:1021D0005D0144E050E0BE018BEF91E00E941C03E2
:1021E00020915C0130915D0144E050E0B8018BEF3B
:1021F00091E00E941C0320915C0130915D0145E05B
:1022000050E0BE018BEF91E00E941C0320915C0125
:1022100030915D0145E050E0B8018BEF91E00E9404
:102220001C0320915C0130915D0146E050E0BE014D
:102230008BEF91E00E941C0320915C0130915D01C5
:1022400046E050E0B8018BEF91E00E941C03209122
:102250005C0130915D0147E050E0BE018BEF91E001
:102260000E941C0320915C0130915D0147E050E029
:10227000B7018BEF91E00E941C0320915C0130912B
:102280005D0147E050E0B8018BEF91E0DF91CF9125
:102290001F910F91FF90EF900C941C03DF91CF9151
:1022A0001F910F91FF90EF90089580E492E00E94BB
:1022B000F61240915C0150915D016AED75E086E295
:1022C00092E00E94011385E192E00E94F612409193
:1022D0005C0150915D016AED75E08BEF91E00E9429
:1022E000011380910601909107010C946E073091C3
:1022F0000D03313208F04BC08091E9028111FCCF0F
:1023000090910C0322E02093E90221E02093E8025F
:102310002FEF2093E7021092E6023093E502ECEEF5
:10232000F2E0A5ECB2E020E0321721F041914D93AC
:102330002F5FFACF1092C4022091C402990F922B02
:102340009093C4029091C302913061F41092C30241
:102350009091C4029093BB009091BC0093FDF8CF84
:1023600095EC01C095EE9093BC009091E9029230FB
:10237000E1F39091E7029F3F79F08091E70280328C
:1023800041F08091E702803331F084E005C081E0C4
:1023900003C082E001C083E01092EB0210920D03B3
:1023A0001092EA02089508950895089585ED8093A6
:1023B000BC008091BC0084FDFCCF1092E90208951E
:1023C00040919A02262F30E0240F311D2132310531
:1023D000DCF42091E9022430C9F4FC0180E090E0B3
:1023E000861758F430919A022191DC01A658BD4F0E
:1023F000A30FB11D2C930196F3CF80919A02680F21
:1024000060939A0280E0089581E0089582E0089543
:10241000E091C2028091C102E81730F4F0E0E65A80
:10242000FD4F808190E008958FEF9FEF0895909188
:10243000C2028091C102981750F4E92FF0E0E65AE9
:10244000FD4F208130E09F5F9093C20202C02FEFCA
:102450003FEFC90108958091C10290E02091C2022E
:10246000821B91090895CF92DF92EF92FF920F9312
:102470001F93CF93DF937C01CB018A012091EA0265
:10248000222389F0EB016B01C40ED51ECC15DD05AE
:1024900069F06991D701ED91FC910190F081E02DF7
:1024A000C7010995F3CF642F0E94E011C801DF91A5
:1024B000CF911F910F91FF90EF90DF90CF900895F3
:1024C000CF93DF931F92CDB7DEB769832091EA02E5
:1024D0002223D1F020910D03203240F021E030E0A2
:1024E000FC013383228380E090E015C08091EB02F1
:1024F000E82FF0E0E451FD4F998190838F5F809346
:10250000EB0280930D0305C061E0CE0101960E94AD
:10251000E01181E090E00F90DF91CF9108950F934B
:102520001F93CF93DF9300915C0110915D01EC014B
:102530002296980143E050E0BE0186E292E00E94BC
:102540001C03980144E050E0BE0186E292E00E9444
:102550001C03980145E050E0BE0186E292E00E9433
:102560001C03980146E050E0BE0186E292E00E9422
:102570001C03980147E050E0BE0186E292E0DF9143
:10258000CF911F910F910C941C03EF92FF920F9328
:102590001F93CF93DF93EC01888991E09093EA0237
:1025A00080930C031092EB0210920D0360E08EE01A
:1025B00093E00E9460128E01005F1F4F7E016881D0
:1025C0008EE093E00E9460122296F70161818EE016
:1025D00093E00E946012C017D10781F7DF91CF917D
:1025E0001F910F91FF90EF900C9477119C01205F49
:1025F0003F4FFC0111921192CF01E217F307C9F787
:1026000008957F928F929F92AF92BF92CF92DF9266
:10261000EF92FF920F931F93CF93DF937C016B0197
:102620005A01712CC0E0D0E000E010E046018C0EB1
:102630009D1E0115110511F0770C02C0F401749074
:1026400077FE06C09501AE01B801C7010E949E0544
:102650000F5F1F4F0830110561F72196C830D10573
:1026600019F7DF91CF911F910F91FF90EF90DF90BD
:10267000CF90BF90AF909F908F907F900895CF9311
:10268000DF93282F30E0F901E255FA4F8491F901E8
:10269000E656FA4FD491F901EA57FA4FC491CC2388
:1026A00089F081110E94C118EC2FF0E0EE0FFF1F9E
:1026B000E458FA4FA591B4918FB7F894EC91ED2BB3
:1026C000EC938FBFDF91CF9108950F931F93CF931A
:1026D0008C01FC01608B1092C2021092C102109218
:1026E000EB0210920D031092E902C1E0C093E802E0
:1026F0001092C30282E10E943F1383E10E943F13C4
:10270000E9EBF0E080818E7F808380818D7F808304
:1027100088E48093B80085E48093BC0084ED91E167
:102720009093C0028093BF0285ED91E19093BE0229
:102730008093BD02F8018089C093EA0280930C0364
:102740001092EB0210920D0361E28EE093E00E9482
:1027500060120E947711F8018089C093EA02809389
:102760000C031092EB0210920D0361E88EE093E0EF
:102770000E9460120E947711F8018089C093EA02DA
:1027800080930C031092EB0210920D036FEE8EE01B
:1027900093E00E946012CF911F910F910C947711DA
:1027A000CF93DF9390E0FC01E656FA4F2491FC01B1
:1027B000EA57FA4F84918823C1F090E0880F991F5F
:1027C000FC01EE58FA4FC591D491FC01E458FA4F40
:1027D000A591B4919FB7F8948881E22FE0958E235C
:1027E00088838C91E823EC939FBFDF91CF9108956C
:1027F0002F923F924F925F926F927F928F929F9211
:10280000AF92BF92CF92DF92EF92FF920F931F93FE
:10281000CF93DF93CDB7DEB76B970FB6F894DEBFDB
:102820000FBECDBF9B8F8A8F5B011A01D22E1F83F3
:102830000E833701C982DC0158962D913C9159973E
:102840002115310509F0E6C018968D919C911997D4
:10285000681779070CF0CDC11A968D919C911B9742
:10286000481759070CF0C5C18C2C912CFB0126E0B0
:10287000C29EE00DF11D1124FB87EA871E161F067C
:102880000CF0B7C1A40183E0440F551F8A95E1F70E
:102890005D874C87CA01820D931D181619060CF02E
:1028A000A8C157968C91811104C05FEA5D1508F4A8
:1028B000D394AA8DBB8DED91FC9111970284F38581
:1028C000E02DCD010995B5E0DB9EC0011124F50195
:1028D0003596FF87EE87BB82AA8225019C012A19C3
:1028E0003B09398B288BA101485F5F4F5B8B4A8B7B
:1028F000E889F989E40DF51DEE58FF4F549158878A
:1029000061013D822C82888580FF13C0AA8DBB8D1A
:10291000ED91FC91B981B13031F40484F585E02D5D
:102920002E813F8116C00684F785E02DEE80FF8062
:102930001AC0EE81FF81E615F705F1F0AA8DBB8D77
:10294000ED91FC91B981B13051F40484F585E02D0D
:102950009301A601B2018A8D9B8D09950DC0068455
:10296000F785E02D7301840194014C815D816A81BA
:102970007B818A8D9B8D0995E885E695E887FFEF39
:10298000CF1ADF0A2C813D81280D391D3D832C8310
:102990004A895B89C416D50609F0B5CF5FEF451AA1
:1029A000550A8A819B81880D991D9B838A83AE85F8
:1029B000BF854A165B0609F09BCFEE81FF81E615C5
:1029C000F70509F4F4C0EA8DFB8DA081B181F9818E
:1029D000F13079F4B5016B5F7F4F5096ED91FC912A
:1029E0005197830128E030E0A1018A8D9B8D0995E4
:1029F000DEC06A857B85681979091E96ED91FC9188
:102A00001F9773010C851D859401A1018A8D9B8DF3
:102A10000995CDC0F9013496E491DE1AF901329698
:102A200085919491B7E0DB9E800D911D1124F901F1
:102A3000259134913B8B2A8BFC01259134912901FE
:102A4000FC013296C490319634913E8732961491AF
:102A50003196D4904981423058F0612E012E000CFD
:102A600077088D2D0D2C000C990B9987888704C051
:102A700019861886612C712CAA8DBB8DED91FC9165
:102A800011970284F385E02DCD010995B9818B2E34
:102A9000912C689CC001699C900D789C900D11242C
:102AA000FC01EA0DFB1DFD87EC871A82712C612C5D
:102AB000E12F110FFF0B95012E0F3F1F3B872A8738
:102AC000AC0CB11CA5014E0F5F1F5F8B4E8BC1017B
:102AD0008D0D911DD7FC9A95998F888F9E856916CB
:102AE00008F065C0862D90E048855985480F591F2C
:102AF000489D9001499D300D589D300D1124D10104
:102B0000A20FB31FB98BA88BEC85FD85FD83EC83E9
:102B1000AA84BB84DA80FA85DF1A288D398D280FC4
:102B2000391F3D8B2C8B8D2D8A0D4E895F89A41604
:102B3000B506C1F1877041F4C2010196EA89FB89AB
:102B4000E40DF51D74902C0177FE21C0AA8DBB8D7C
:102B5000ED91FC91B981B13061F40484F585E02DEB
:102B60002E813F814C895D89B5018A8D9B8D0995A8
:102B70000EC00684F785E02DEE80FF80840194016D
:102B8000488959896C817D818A8D9B8D0995770C47
:102B9000EFEFAE1ABE0A2C813D81280D391D3D8311
:102BA0002C83C1CF3A813C0D3A83639497CFAA8D91
:102BB000BB8DED91FC9111970688F789E02DCD0131
:102BC0006B960FB6F894DEBF0FBECDBFDF91CF91ED
:102BD0001F910F91FF90EF90DF90CF90BF90AF903B
:102BE0009F908F907F906F905F904F903F902F902D
:102BF00009946B960FB6F894DEBF0FBECDBFDF9180
:102C0000CF911F910F91FF90EF90DF90CF90BF90E9
:102C1000AF909F908F907F906F905F904F903F907C
:102C20002F9008951F920F920FB60F9211242F9399
:102C30003F934F935F936F937F938F939F93AF9344
:102C4000BF93EF93FF938091B900887F803609F49A
:102C50009CC068F5883209F45BC090F4803109F4B7
:102C600054C038F4882309F4F6C0883009F44DC004
:102C7000F6C0883109F44CC0803209F45DC0EFC061
:102C8000803409F468C048F4803309F455C08833AF
:102C900009F0E5C08093E702D8C0803509F44FC041
:102CA000883509F45DC0883409F0D9C0D6C08839A8
:102CB00009F4C7C0A8F4883709F467C038F4883627
:102CC00009F463C0803709F460C0C9C0883809F4CA
:102CD000B8C0803909F45FC0803809F0C0C05BC05B
:102CE000803B09F486C038F4803A09F466C0883A1B
:102CF00009F47FC0B4C0803C09F4A7C0883C09F443
:102D0000A4C0883B09F48AC0AAC08091C40210C044
:102D10009091E6028091E502981770F5E091E60245
:102D200081E08E0F8093E602F0E0EB53FD4F80814F
:102D30008093BB0085EC86C08093E7028EC0E09153
:102D4000E60281E08E0F8093E6028091BB00F0E006
:102D5000EB53FD4F80839091E6028091E5026EC0B7
:102D6000E091E60281E08E0F8093E6028091BB0045
:102D7000F0E0EB53FD4F80838091E80281116DC03C
:102D800081E08093C30284EA61C083E08093E9021A
:102D90001092BC02CFCF8091BC02803208F051C0AB
:102DA000E091BC0281E08E0F8093BC028091BB0059
:102DB000F0E0E456FD4F8083BDCF85EC8093BC00EE
:102DC0001092E9028091BC02803230F4E091BC02A2
:102DD000F0E0E456FD4F10826091BC0270E0E0919B
:102DE000BD02F091BE028CE992E009951092BC02FE
:102DF00036C084E08093E90210929B0210929A02FE
:102E0000E091BF02F091C002099580919A02811170
:102E100005C081E080939A0210927A02E0919B02B1
:102E200081E08E0F80939B02F0E0E658FD4F808199
:102E30008093BB0090919B0280919A02981708F4AE
:102E400079CF85E88093BC000AC085EC8093BC00F4
:102E50001092E90204C01092E7020E94D611FF917D
:102E6000EF91BF91AF919F918F917F916F915F9102
:102E70004F913F912F910F900FBE0F901F9018957B
:102E80001F920F920FB60F9211242F933F938F939F
:102E90009F93AF93BF938091560290915702A09158
:102EA0005802B09159023091550223E0230F2D377B
:102EB00020F40196A11DB11D05C026E8230F02963E
:102EC000A11DB11D20935502809356029093570285
:102ED000A0935802B09359028091510290915202EE
:102EE000A0915302B09154020196A11DB11D80938F
:102EF000510290935202A0935302B0935402BF9197
:102F0000AF919F918F913F912F910F900FBE0F9096
:102F10001F901895CF93DF93282F30E0F901E255E9
:102F2000FA4F8491F901E656FA4FD491F901EA5724
:102F3000FA4FC491CC2391F081110E94C118EC2F5B
:102F4000F0E0EE0FFF1FE859FF4FA591B491EC910F
:102F5000ED2381E090E021F480E002C080E090E089
:102F6000DF91CF910895CF92DF92EF92FF920F936E
:102F70001F93CF93DF936C017A018B01C0E0D0E007
:102F8000CE15DF0581F0D8016D918D01D601ED914F
:102F9000FC910190F081E02DC6010995892B11F07B
:102FA0002196EECF7E01C701DF91CF911F910F9146
:102FB000FF90EF90DF90CF900895FC01538D448DEA
:102FC000252F30E0842F90E0821B930B541710F0D4
:102FD000CF96089501970895FC01918D828D9817E1
:102FE00061F0828DDF01A80FB11D5D968C91928DED
:102FF0009F5F9F73928F90E008958FEF9FEF0895EA
:10300000FC01918D828D981731F0828DE80FF11DB2
:10301000858D90E008958FEF9FEF0895FC01918DCD
:10302000228D892F90E0805C9F4F821B91098F73C6
:1030300099270895FC01848DDF01A80FB11DA35AC3
:10304000BF4F2C91848D90E001968F739927848FC8
:10305000A689B7892C93A089B1898C9183708064EB
:103060008C93938D848D981306C00288F389E02D8C
:1030700080818F7D80830895EF92FF920F931F933D
:10308000CF93DF93EC0181E0888F9B8D8C8D98131B
:1030900005C0E889F989808185FD26C0F62E0B8D53
:1030A00010E00F5F1F4F0F731127E02E8C8DE81279
:1030B0000CC00FB607FCFACFE889F989808185FF3B
:1030C000F5CFCE010E941A18F1CF8B8DFE01E80FCB
:1030D000F11DE35AFF4FF0829FB7F8940B8FEA89F6
:1030E000FB89808180620AC09FB7F894EE89FF89CE
:1030F0006083E889F98980818370806480839FBFC1
:1031000081E090E0DF91CF911F910F91FF90EF90C0
:103110000895CF93DF93EC01888D8823C9F0EA8965
:10312000FB89808185FD05C0A889B9898C9186FDC0
:103130000FC00FB607FCF5CF808185FFF2CFA889BD
:10314000B9898C9185FFEDCFCE010E941A18E7CF87
:10315000DF91CF9108958EE591E00E940E1821E055
:10316000892B09F420E0822F089580E090E0892BDC
:1031700029F00E94AB1881110C94000008950E9460
:103180005323833081F028F4813099F08230A1F00C
:1031900008958730A9F08830B9F08430D1F4809157
:1031A00080008F7D03C0809180008F7780938000A6
:1031B000089584B58F7702C084B58F7D84BD08954E
:1031C0008091B0008F7703C08091B0008F7D809395
:1031D000B00008951F920F920FB60F9211242F93F3
:1031E0003F934F935F936F937F938F939F93AF938F
:1031F000BF93EF93FF938EE591E00E941A18FF9121
:10320000EF91BF91AF919F918F917F916F915F915E
:103210004F913F912F910F900FBE0F901F901895D7
:103220001F920F920FB60F9211242F938F939F939B
:10323000EF93FF93E0916E01F0916F018081E09137
:103240007401F091750182FD12C090818091770127
:103250008F5F8F7320917801821751F0E091770191
:10326000F0E0E25AFE4F958F8093770101C0808194
:10327000FF91EF919F918F912F910F900FBE0F9023
:103280001F901895FC011382128288E090E09583CC
:103290008483978386839187808793878287158A23
:1032A000158614861786168681E0848B2FEF3FEFF4
:1032B000338B228B318B208B868B178A118E108E4D
:1032C00080E191E0918380830895EEE0F3E0138242
:1032D000128288EE93E0A0E0B0E084839583A68319
:1032E000B7832CE331E031832083EEE5F1E01382F4
:1032F000128284839583A683B7838EE491E09183C1
:10330000808385EC90E09587848784EC90E09787B4
:10331000868780EC90E0918B808B81EC90E0938BA2
:10332000828B82EC90E0958B848B86EC90E0978B7F
:10333000868B118E128E138E148E86E292E00E947E
:1033400042198BEF91E00C944219CF93DF9300D098
:1033500000D000D0CDB7DEB7789484B5826084BD4C
:1033600084B5816084BD85B5826085BD85B5816089
:1033700085BD80916E00816080936E001092810007
:1033800080918100826080938100809181008160C2
:103390008093810080918000816080938000809183
:1033A000B10084608093B1008091B000816080930F
:1033B000B00080917A00846080937A0080917A00D6
:1033C000826080937A0080917A00816080937A0095
:1033D00080917A00806880937A001092C10086E024
:1033E0000E94D01387E00E94D01388E00E94D0137F
:1033F00089E00E94D0138AE00E94D01388E00E94E6
:103400003F13E0916E01F0916F0182E08083E091C3
:103410006A01F0916B011082E0916C01F0916D01F5
:103420008FEC808310927601E0917201F09173012C
:1034300086E08083E0917001F0917101808180616C
:103440008083E0917001F0917101808188608083B8
:10345000E0917001F0917101808180688083E0913A
:103460007001F091710180818F7D808386E00E94E0
:103470008A17909321038093200386E00E948A1785
:1034800090931F0380931E0386E00E948A179093F7
:103490001D0380931C0386E00E948A1790931B03F0
:1034A00080931A0360E780E492E00E94651361E76D
:1034B00085E192E00E9465130E9455112224239415
:1034C000312C109235031092340320E420937C00B9
:1034D00080917A00806480937A0080917A0086FDE2
:1034E000FCCF609178008091790070E0782B072EF6
:1034F000000C880B990B0E945422209130033091CC
:10350000310340913203509133030E943E21609376
:1035100030037093310380933203909333032091EF
:103520002E0330912F032F5F3F4F30932F032093B3
:103530002E03283E3340C1F420E030E04AE754E453
:103540000E94AA210E941C2270932D0360932C03D9
:1035500010922F0310922E03109230031092310319
:10356000109232031092330360912C0370912D035B
:10357000072E000C880B990B0E9454222B013C0152
:1035800020E030E048EC52E40E94E02220E030E00D
:1035900040E85AE30E94E0220E941C22809102012E
:1035A000909103019A838983681779073CF423E09B
:1035B00030E030935D0120935C0112C080910001E6
:1035C00090910101861797072CF430925D012092AB
:1035D0005C0106C082E090E090935D0180935C0105
:1035E00088E00E948A17892BB1F488E00E948A172C
:1035F000892BD9F380912A0390912B03009729F40A
:1036000030922B0320922A0306C0019721F41092D6
:103610002B0310922A0386E00E948A178C01909354
:1036200021038093200380911E0390911F030817AC
:10363000190731F187E00E948A170817190781F0EE
:1036400029813A8123363105DCF42F5F3F4F3093D7
:10365000030120930201309235032092340310C0FD
:1036600089819A81181619065CF4019790930301D9
:103670008093020122E030E030933503209334033D
:1036800089E00E948A177C0190931D0380931C039C
:1036900080911A0390911B03E816F90649F18AE01C
:1036A0000E948A172091000130910101E816F90665
:1036B00081F024363105E4F42F5F3F4F3093010150
:1036C0002093000183E090E09093350380933403CE
:1036D0000FC02230310564F02150310930930101CF
:1036E0002093000124E030E030933503209334032D
:1036F000209102013091030180910001909101011C
:1037000082179307E4F48091340390913503AC0160
:10371000415051094230510530F42F5F3F4F3093F3
:103720000101209300010397029748F48091000162
:1037300090910101019790930301809302016091A0
:1037400002017091030180910001909101019A831F
:10375000898310931F0300931E03F0921B03E092D2
:103760001A0380912A0390912B03181619060CF066
:10377000CCC2072E000C880B990B0E9454224B01DF
:103780005C0129813A81B901330F880B990B0E94A2
:1037900054226B017C0180E492E00E94F61285E1E4
:1037A00092E00E94F61220E030E040E851E4C501CA
:1037B000B4010E94E02220E030E048EC52E40E9494
:1037C000AA210E941C227A83698320E030E040E82D
:1037D00051E4C701B6010E94E02220E030E048EC4D
:1037E00052E40E94AA210E941C227C836B8320E069
:1037F00030E040E851E4C301B2010E94E02220E041
:1038000030E040E85AE30E94E0220E941C223B0183
:103810001E821D8289819A812D813E812817390758
:1038200094F423E030E040E050E06D817E818BEF46
:1038300091E00E941C038D819E8186159705BCF541
:1038400023E030E02DC02B813C818D819E812817A3
:103850003907ACF421E030E040E050E0BC018BEFF0
:1038600091E00E941C032D813E8126153705FCF452
:1038700021E030E041E050E06D817E8114C022E023
:1038800030E040E050E06D817E818BEF91E00E945E
:103890001C038D819E81861597054CF422E030E053
:1038A00041E050E0BC018BEF91E00E941C032D81B0
:1038B0003E812F5F3F4F3E832D832830310509F035
:1038C000A9CF00E010E088E090E09E838D832981FD
:1038D0003A818D819E81821793078CF423E030E03A
:1038E00040E050E0B80186E292E00E941C032D8186
:1038F0003E812615370594F523E030E028C08B8102
:103900009C812D813E81821793078CF421E030E069
:1039100040E050E0B80186E292E00E941C038D81F5
:103920009E8186159705D4F421E030E010C022E096
:1039300030E040E050E0B80186E292E00E941C03D3
:103940002D813E81261537054CF422E030E041E020
:1039500050E0B80186E292E00E941C038D819E81B6
:1039600001969E838D830F5F1F4F409709F0AFCF65
:1039700020E030E040E251E4C501B4010E94AA21F8
:103980000E941C222B013C01CB01892B39F462E0FF
:1039900070E081E090E00E94241057C06130710512
:1039A00029F481E090E00E9431074FC06230710538
:1039B00039F462E070E081E090E00E94090F45C0B8
:1039C0006330710539F462E070E081E090E00E94BC
:1039D000EE0D3BC06430710539F462E070E081E0C7
:1039E00090E00E94090D31C06530710539F462E044
:1039F00070E081E090E00E94EE0B27C06630710518
:103A000039F462E070E081E090E00E94BD0A1DC0E0
:103A10006730710539F462E070E081E090E00E9467
:103A20000E0A13C06830710539F462E070E081E07D
:103A300090E00E94C70809C06930710531F462E066
:103A400070E081E090E00E94C207B201550C880B43
:103A5000990B0E94542220E030E040E251E40E94A1
:103A6000E0229B01AC01C501B4010E943D210E94EE
:103A70001C226115710539F462E070E085E090E088
:103A80000E94241057C06130710529F485E090E050
:103A90000E9431074FC06230710539F462E070E076
:103AA00085E090E00E94090F45C06330710539F44C
:103AB00062E070E085E090E00E94EE0D3BC0643073
:103AC000710539F462E070E085E090E00E94090D34
:103AD00031C06530710539F462E070E085E090E056
:103AE0000E94EE0B27C06630710539F462E070E089
:103AF00085E090E00E94BD0A1DC06730710539F471
:103B000062E070E085E090E00E940E0A13C0683029
:103B1000710539F462E070E085E090E00E94C7082A
:103B200009C06930710531F462E070E085E090E031
:103B30000E94C20720E030E040E251E4C701B60134
:103B40000E94AA210E941C224B015C01CB01892BFF
:103B500039F461E070E081E090E00E94241057C0E9
:103B60006130710529F481E090E00E948F124FC00E
:103B70006230710539F461E070E081E090E00E940C
:103B8000090F45C06330710539F461E070E081E0F0
:103B900090E00E94EE0D3BC06430710539F461E0A5
:103BA00070E081E090E00E94090D31C06530710540
:103BB00039F461E070E081E090E00E94EE0B27C0F4
:103BC0006630710539F461E070E081E090E00E94B8
:103BD000BD0A1DC06730710539F461E070E081E015
:103BE00090E00E940E0A13C06830710539F461E05C
:103BF00070E081E090E00E94C70809C0693071055B
:103C000031F461E070E081E090E00E94C207B4010D
:103C1000990C880B990B0E94542220E030E040E27E
:103C200051E40E94E0229B01AC01C701B6010E9451
:103C30003D210E941C226115710539F461E070E09C
:103C400085E090E00E94241057C06130710529F48E
:103C500085E090E00E948F124FC06230710539F408
:103C600061E070E085E090E00E94090F45C063309C
:103C7000710539F461E070E085E090E00E94EE0D9E
:103C80003BC06430710539F461E070E085E090E09C
:103C90000E94090D31C06530710539F461E070E0B2
:103CA00085E090E00E94EE0B27C06630710539F484
:103CB00061E070E085E090E00E94BD0A1DC06730C1
:103CC000710539F461E070E085E090E00E940E0A31
:103CD00013C06830710539F461E070E085E090E070
:103CE0000E94C70809C06930710531F461E070E0D5
:103CF00085E090E00E94C20780E492E00E94C51235
:103D000085E192E00E94C51225C080912803909120
:103D100029030097D1F40E94551120EA30E0309336
:103D20002903209328030E9483202CE330E040E005
:103D300050E00E94DA20209127036130710581054F
:103D4000910559F4211109C0B7C001979093290337
:103D5000809328030E94B518B4CB222309F493C0A2
:103D6000009106011091070180912503909126038F
:103D700098012F5F3F4F3A832983081719072CF4C6
:103D800030930501209304010CC0801791073CF487
:103D9000C8010197909305018093040102C010921D
:103DA000270320915C0130915D0143E050E0B801B0
:103DB00086E292E00E941C0320915C0130915D013B
:103DC00043E050E069817A8186E292E00E941C0320
:103DD00020915C0130915D0144E050E0B80186E241
:103DE00092E00E941C0320915C0130915D0144E04F
:103DF00050E069817A8186E292E00E941C03209162
:103E00005C0130915D0143E050E0B8018BEF91E03F
:103E10000E941C0320915C0130915D0143E050E061
:103E200069817A818BEF91E00E941C0320915C01F3
:103E300030915D0144E050E0B8018BEF91E00E94C9
:103E40001C0320915C0130915D0144E050E06981E8
:103E50007A818BEF91E00E941C0380910401909184
:103E600005019A8389830E946E0729813A813093E4
:103E700007012093060180E492E00E94C51285E1CB
:103E800092E00E94C5120E9483202AE530E040E0C3
:103E900050E00E94DA2020912403613071058105F1
:103EA0009105F9F421111DC041E0409324033092A3
:103EB0002303209222034ECF0E94832025E030E08E
:103EC00040E050E00E94DA20DC01CB010196A11D08
:103ED000B11D909326038093250331E0309327038F
:103EE000D2CF222309F436CF80912203909123036D
:103EF000009729F51092240380E492E00E94F612C4
:103F000085E192E00E94F61240915C0150915D01C2
:103F10006AED75E086E292E00E94011340915C0137
:103F200050915D016AED75E08BEF91E00E94011305
:103F300080910401909105010E946E07DDCE9C01E5
:103F40002B7F2130310581F580E492E00E94F6124A
:103F500085E192E00E94F61240915C0150915D0172
:103F600062ED75E086E292E00E94011340915C01EF
:103F700050915D0162ED75E08BEF91E00E940113BD
:103F800080910401909105010E946E0780912203A7
:103F900090912303019719F482E090E038C01092C9
:103FA000230310922203A8CE8230910519F08430A9
:103FB000910591F580E492E00E94F61285E192E08D
:103FC0000E94F61240915C0150915D016AEC75E02F
:103FD00086E292E00E94011340915C0150915D01E4
:103FE0006AEC75E08BEF91E00E940113809104016F
:103FF000909105010E946E07809122039091230306
:10400000029719F423E030E02EC085E090E0909311
:1040100023038093220370CE039709F06DCE80E4D2
:1040200092E00E94F61285E192E00E94F612409121
:104030005C0150915D0162EC75E086E292E00E94C5
:10404000011340915C0150915D0162EC75E08BEFD2
:1040500091E00E94011380910401909105010E945A
:104060006E0724E030E0309323032093220344CEF4
:104070008F929F92AF92BF92CF92DF92EF92FF9278
:10408000CF93DF93EC01688179818A819B816115EF
:1040900071058105910521F464E279ED8BE597E0E6
:1040A0002DE133EF41E050E00E94DA2049015A014E
:1040B0009B01AC01A7EAB1E40E94F9206B017C01ED
:1040C000ACEEB4EFA50194010E940721DC01CB0105
:1040D0008C0D9D1DAE1DBF1DB7FF03C00197A1092B
:1040E000B04888839983AA83BB83BC01CD019F77A5
:1040F000DF91CF91FF90EF90DF90CF90BF90AF9086
:104100009F908F9008958F929F92AF92BF92CF927F
:10411000DF92EF92FF926091080170910901809106
:104120000A0190910B01611571058105910521F43A
:1041300064E279ED8BE597E02DE133EF41E050E06B
:104140000E94DA2049015A019B01AC01A7EAB1E4BF
:104150000E94F9206B017C01ACEEB4EFA501940143
:104160000E940721DC01CB018C0D9D1DAE1DBF1DE2
:10417000B7FF03C00197A109B0488093080190934D
:104180000901A0930A01B0930B01BC01CD019F77F7
:10419000FF90EF90DF90CF90BF90AF909F908F9067
:1041A0000895609308017093090180930A01909328
:1041B0000B010895052E97FB1EF400940E94F12038
:1041C00057FD07D00E940C2107FC03D04EF40C943D
:1041D000F12050954095309521953F4F4F4F5F4FBF
:1041E000089590958095709561957F4F8F4F9F4F63
:1041F00008950E942E21A59F900DB49F900DA49F1D
:10420000800D911D11240895B7FF0C94F9200E9490
:10421000F920821B930B0895A1E21A2EAA1BBB1B47
:10422000FD010DC0AA1FBB1FEE1FFF1FA217B30782
:10423000E407F50720F0A21BB30BE40BF50B661F98
:10424000771F881F991F1A9469F76095709580955C
:1042500090959B01AC01BD01CF010895A29FB001D3
:10426000B39FC001A39F700D811D1124911DB29FAA
:10427000700D811D1124911D08955058BB27AA2748
:104280000E9455210C94A6220E94982238F00E9488
:104290009F2220F039F49F3F19F426F40C949522C4
:1042A0000EF4E095E7FB0C948F22E92F0E94B722D1
:1042B00058F3BA17620773078407950720F079F45B
:1042C000A6F50C94D9220EF4E0950B2EBA2FA02D52
:1042D0000B01B90190010C01CA01A0011124FF27B3
:1042E000591B99F0593F50F4503E68F11A16F040AE
:1042F000A22F232F342F4427585FF3CF46953795AD
:104300002795A795F0405395C9F77EF41F16BA0B71
:10431000620B730B840BBAF09150A1F0FF0FBB1F1F
:10432000661F771F881FC2F70EC0BA0F621F731F68
:10433000841F48F4879577956795B795F7959E3FC5
:1043400008F0B0CF9395880F08F09927EE0F979556
:10435000879508950E94BE210C94A6220E949F2258
:1043600058F00E94982240F029F45F3F29F00C9405
:104370008F2251110C94DA220C9495220E94B722BC
:1043800068F39923B1F3552391F3951B550BBB2784
:10439000AA2762177307840738F09F5F5F4F220FC9
:1043A000331F441FAA1FA9F335D00E2E3AF0E0E8C0
:1043B00032D091505040E695001CCAF72BD0FE2F0A
:1043C00029D0660F771F881FBB1F2617370748079E
:1043D000AB07B0E809F0BB0B802DBF01FF27935856
:1043E0005F4F3AF09E3F510578F00C948F220C9469
:1043F000DA225F3FE4F3983ED4F38695779567958C
:10440000B795F7959F5FC9F7880F911D969587958A
:1044100097F90895E1E0660F771F881FBB1F6217A9
:1044200073078407BA0720F0621B730B840BBA0B67
:10443000EE1F88F7E09508950E9423226894B11139
:104440000C94DA2208950E94BF2288F09F5798F0BA
:10445000B92F9927B751B0F0E1F0660F771F881F89
:10446000991F1AF0BA95C9F714C0B13091F00E94A3
:10447000D922B1E008950C94D922672F782F88278C
:10448000B85F39F0B93FCCF3869577956795B395CA
:10449000D9F73EF490958095709561957F4F8F4F39
:1044A0009F4F0895E89409C097FB3EF4909580953E
:1044B000709561957F4F8F4F9F4F9923A9F0F92FEA
:1044C00096E9BB279395F695879577956795B79568
:1044D000F111F8CFFAF4BB0F11F460FF1BC06F5F4E
:1044E0007F4F8F4F9F4F16C0882311F096E911C060
:1044F000772321F09EE8872F762F05C0662371F081
:1045000096E8862F70E060E02AF09A95660F771F94
:10451000881FDAF7880F9695879597F9089597F988
:104520009F6780E870E060E008959FEF80EC089559
:1045300000240A9416161706180609060895002482
:104540000A9412161306140605060895092E0394FC
:10455000000C11F4882352F0BB0F40F4BF2B11F470
:1045600060FF04C06F5F7F4F8F4F9F4F089557FDCF
:104570009058440F551F59F05F3F71F04795880FD1
:1045800097FB991F61F09F3F79F087950895121668
:1045900013061406551FF2CF4695F1DF08C0161614
:1045A00017061806991FF1CF8695710561050894C5
:1045B0000895E894BB2766277727CB0197F90895DC
:1045C0000E94F3220C94A6220E94982238F00E94A6
:1045D0009F2220F0952311F00C948F220C949522A9
:1045E00011240C94DA220E94B72270F3959FC1F334
:1045F000950F50E0551F629FF001729FBB27F00D91
:10460000B11D639FAA27F00DB11DAA1F649F6627E5
:10461000B00DA11D661F829F2227B00DA11D621F34
:10462000739FB00DA11D621F839FA00D611D221FEE
:10463000749F3327A00D611D231F849F600D211DD2
:10464000822F762F6A2F11249F5750409AF0F1F055
:1046500088234AF0EE0FFF1FBB1F661F771F881FBE
:1046600091505040A9F79E3F510580F00C948F2245
:104670000C94DA225F3FE4F3983ED4F38695779565
:104680006795B795F795E7959F5FC1F7FE2B880F64
:10469000911D9695879597F90895EE0FFF1F059048
:1046A000F491E02D099481E090E0F8940C94582363
:0446B000F894FFCFAC
:1046B400500014000300030001000000000000008B
:1046C4005B06B317580657061C03D3119E057605DF
:1046D40092058605A505D311C103C0033D05040554
:1046E400BF04A2043504D603000000006012331294
:1046F4005806D3112B1217120812000000003C18A0
:0C470400B317DD1789180E18EC17001809
:00000001FF
